{"contracts/SquareXOSettlement.sol":{"SquareXOSettlement":{"abi":[{"anonymous":false,"inputs":[{"indexed":true,"internalType":"bytes32","name":"matchId","type":"bytes32"},{"indexed":true,"internalType":"address","name":"reporter","type":"address"},{"indexed":true,"internalType":"address","name":"winner","type":"address"},{"indexed":false,"internalType":"uint8","name":"winnerCode","type":"uint8"},{"indexed":false,"internalType":"uint256","name":"stakeWei","type":"uint256"}],"name":"MatchSettled","type":"event"},{"inputs":[{"internalType":"bytes32","name":"matchId","type":"bytes32"},{"internalType":"address","name":"winner","type":"address"},{"internalType":"uint8","name":"winnerCode","type":"uint8"}],"name":"settleMatch","outputs":[],"stateMutability":"payable","type":"function"},{"inputs":[{"internalType":"bytes32","name":"","type":"bytes32"}],"name":"settlements","outputs":[{"internalType":"bytes32","name":"matchId","type":"bytes32"},{"internalType":"address","name":"reporter","type":"address"},{"internalType":"address","name":"winner","type":"address"},{"internalType":"uint8","name":"winnerCode","type":"uint8"},{"internalType":"uint256","name":"stakeWei","type":"uint256"},{"internalType":"uint256","name":"timestamp","type":"uint256"}],"stateMutability":"view","type":"function"}],"evm":{"bytecode":{"linkReferences":{},"object":"608060405234801561001057600080fd5b5061048d806100206000396000f3fe6080604052600436106100295760003560e01c806301bc95e21461002e5780632917a4db146100cf575b600080fd5b34801561003a57600080fd5b5061008f6100493660046103ea565b6000602081905290815260409020805460018201546002830154600384015460049094015492936001600160a01b039283169392821692600160a01b90920460ff169186565b604080519687526001600160a01b039586166020880152939094169285019290925260ff166060840152608083015260a082015260c00160405180910390f35b6100e26100dd366004610403565b6100e4565b005b826101295760405162461bcd60e51b815260206004820152601060248201526f1253959053125117d3505510d217d25160821b60448201526064015b60405180910390fd5b60028160ff1611156101735760405162461bcd60e51b8152602060048201526013602482015272494e56414c49445f57494e4e45525f434f444560681b6044820152606401610120565b60008381526020819052604090206004810154156101cb5760405162461bcd60e51b815260206004820152601560248201527413505510d217d053149150511657d4d15515131151605a1b6044820152606401610120565b8160ff16600003610232576001600160a01b0383161561022d5760405162461bcd60e51b815260206004820152601860248201527f445241575f57494e4e45525f4d5553545f42455f5a45524f00000000000000006044820152606401610120565b61027a565b6001600160a01b03831661027a5760405162461bcd60e51b815260206004820152600f60248201526e15d25393915497d491545552549151608a1b6044820152606401610120565b6040805160c0810182528581523360208083019182526001600160a01b0387811684860190815260ff8089166060870190815234608088018181524260a08a0190815260008f815297889052999096209751885595516001880180549186166001600160a01b031990921691909117905591516002870180549351909216600160a01b026001600160a81b031990931693169290921717905551600383015591516004909101551561039a578160ff166000036103635760405133903480156108fc02916000818181858888f1935050505015801561035d573d6000803e3d6000fd5b5061039a565b6040516001600160a01b038416903480156108fc02916000818181858888f19350505050158015610398573d6000803e3d6000fd5b505b6040805160ff841681523460208201526001600160a01b03851691339187917fd15b3b7cee4e22c92783ab8c8ec2b99d3e62a08f55b1e523e5a3f840ffde7a07910160405180910390a450505050565b6000602082840312156103fc57600080fd5b5035919050565b60008060006060848603121561041857600080fd5b8335925060208401356001600160a01b038116811461043657600080fd5b9150604084013560ff8116811461044c57600080fd5b80915050925092509256fea2646970667358221220f3eb60f41607551ca7ffea0d32170c9342022e32a23ef958dd88db480c4d146364736f6c63430008180033","opcodes":"PUSH1 0x80 PUSH1 0x40 MSTORE CALLVALUE DUP1 ISZERO PUSH2 0x10 JUMPI PUSH1 0x0 DUP1 REVERT JUMPDEST POP PUSH2 0x48D DUP1 PUSH2 0x20 PUSH1 0x0 CODECOPY PUSH1 0x0 RETURN INVALID PUSH1 0x80 PUSH1 0x40 MSTORE PUSH1 0x4 CALLDATASIZE LT PUSH2 0x29 JUMPI PUSH1 0x0 CALLDATALOAD PUSH1 0xE0 SHR DUP1 PUSH4 0x1BC95E2 EQ PUSH2 0x2E JUMPI DUP1 PUSH4 0x2917A4DB EQ PUSH2 0xCF JUMPI JUMPDEST PUSH1 0x0 DUP1 REVERT JUMPDEST CALLVALUE DUP1 ISZERO PUSH2 0x3A JUMPI PUSH1 0x0 DUP1 REVERT JUMPDEST POP PUSH2 0x8F PUSH2 0x49 CALLDATASIZE PUSH1 0x4 PUSH2 0x3EA JUMP JUMPDEST PUSH1 0x0 PUSH1 0x20 DUP2 SWAP1 MSTORE SWAP1 DUP2 MSTORE PUSH1 0x40 SWAP1 KECCAK256 DUP1 SLOAD PUSH1 0x1 DUP3 ADD SLOAD PUSH1 0x2 DUP4 ADD SLOAD PUSH1 0x3 DUP5 ADD SLOAD PUSH1 0x4 SWAP1 SWAP5 ADD SLOAD SWAP3 SWAP4 PUSH1 0x1 PUSH1 0x1 PUSH1 0xA0 SHL SUB SWAP3 DUP4 AND SWAP4 SWAP3 DUP3 AND SWAP3 PUSH1 0x1 PUSH1 0xA0 SHL SWAP1 SWAP3 DIV PUSH1 0xFF AND SWAP2 DUP7 JUMP JUMPDEST PUSH1 0x40 DUP1 MLOAD SWAP7 DUP8 MSTORE PUSH1 0x1 PUSH1 0x1 PUSH1 0xA0 SHL SUB SWAP6 DUP7 AND PUSH1 0x20 DUP9 ADD MSTORE SWAP4 SWAP1 SWAP5 AND SWAP3 DUP6 ADD SWAP3 SWAP1 SWAP3 MSTORE PUSH1 0xFF AND PUSH1 0x60 DUP5 ADD MSTORE PUSH1 0x80 DUP4 ADD MSTORE PUSH1 0xA0 DUP3 ADD MSTORE PUSH1 0xC0 ADD PUSH1 0x40 MLOAD DUP1 SWAP2 SUB SWAP1 RETURN JUMPDEST PUSH2 0xE2 PUSH2 0xDD CALLDATASIZE PUSH1 0x4 PUSH2 0x403 JUMP JUMPDEST PUSH2 0xE4 JUMP JUMPDEST STOP JUMPDEST DUP3 PUSH2 0x129 JUMPI PUSH1 0x40 MLOAD PUSH3 0x461BCD PUSH1 0xE5 SHL DUP2 MSTORE PUSH1 0x20 PUSH1 0x4 DUP3 ADD MSTORE PUSH1 0x10 PUSH1 0x24 DUP3 ADD MSTORE PUSH16 0x1253959053125117D3505510D217D251 PUSH1 0x82 SHL PUSH1 0x44 DUP3 ADD MSTORE PUSH1 0x64 ADD JUMPDEST PUSH1 0x40 MLOAD DUP1 SWAP2 SUB SWAP1 REVERT JUMPDEST PUSH1 0x2 DUP2 PUSH1 0xFF AND GT ISZERO PUSH2 0x173 JUMPI PUSH1 0x40 MLOAD PUSH3 0x461BCD PUSH1 0xE5 SHL DUP2 MSTORE PUSH1 0x20 PUSH1 0x4 DUP3 ADD MSTORE PUSH1 0x13 PUSH1 0x24 DUP3 ADD MSTORE PUSH19 0x494E56414C49445F57494E4E45525F434F4445 PUSH1 0x68 SHL PUSH1 0x44 DUP3 ADD MSTORE PUSH1 0x64 ADD PUSH2 0x120 JUMP JUMPDEST PUSH1 0x0 DUP4 DUP2 MSTORE PUSH1 0x20 DUP2 SWAP1 MSTORE PUSH1 0x40 SWAP1 KECCAK256 PUSH1 0x4 DUP2 ADD SLOAD ISZERO PUSH2 0x1CB JUMPI PUSH1 0x40 MLOAD PUSH3 0x461BCD PUSH1 0xE5 SHL DUP2 MSTORE PUSH1 0x20 PUSH1 0x4 DUP3 ADD MSTORE PUSH1 0x15 PUSH1 0x24 DUP3 ADD MSTORE PUSH21 0x13505510D217D053149150511657D4D15515131151 PUSH1 0x5A SHL PUSH1 0x44 DUP3 ADD MSTORE PUSH1 0x64 ADD PUSH2 0x120 JUMP JUMPDEST DUP2 PUSH1 0xFF AND PUSH1 0x0 SUB PUSH2 0x232 JUMPI PUSH1 0x1 PUSH1 0x1 PUSH1 0xA0 SHL SUB DUP4 AND ISZERO PUSH2 0x22D JUMPI PUSH1 0x40 MLOAD PUSH3 0x461BCD PUSH1 0xE5 SHL DUP2 MSTORE PUSH1 0x20 PUSH1 0x4 DUP3 ADD MSTORE PUSH1 0x18 PUSH1 0x24 DUP3 ADD MSTORE PUSH32 0x445241575F57494E4E45525F4D5553545F42455F5A45524F0000000000000000 PUSH1 0x44 DUP3 ADD MSTORE PUSH1 0x64 ADD PUSH2 0x120 JUMP JUMPDEST PUSH2 0x27A JUMP JUMPDEST PUSH1 0x1 PUSH1 0x1 PUSH1 0xA0 SHL SUB DUP4 AND PUSH2 0x27A JUMPI PUSH1 0x40 MLOAD PUSH3 0x461BCD PUSH1 0xE5 SHL DUP2 MSTORE PUSH1 0x20 PUSH1 0x4 DUP3 ADD MSTORE PUSH1 0xF PUSH1 0x24 DUP3 ADD MSTORE PUSH15 0x15D25393915497D491545552549151 PUSH1 0x8A SHL PUSH1 0x44 DUP3 ADD MSTORE PUSH1 0x64 ADD PUSH2 0x120 JUMP JUMPDEST PUSH1 0x40 DUP1 MLOAD PUSH1 0xC0 DUP2 ADD DUP3 MSTORE DUP6 DUP2 MSTORE CALLER PUSH1 0x20 DUP1 DUP4 ADD SWAP2 DUP3 MSTORE PUSH1 0x1 PUSH1 0x1 PUSH1 0xA0 SHL SUB DUP8 DUP2 AND DUP5 DUP7 ADD SWAP1 DUP2 MSTORE PUSH1 0xFF DUP1 DUP10 AND PUSH1 0x60 DUP8 ADD SWAP1 DUP2 MSTORE CALLVALUE PUSH1 0x80 DUP9 ADD DUP2 DUP2 MSTORE TIMESTAMP PUSH1 0xA0 DUP11 ADD SWAP1 DUP2 MSTORE PUSH1 0x0 DUP16 DUP2 MSTORE SWAP8 DUP9 SWAP1 MSTORE SWAP10 SWAP1 SWAP7 KECCAK256 SWAP8 MLOAD DUP9 SSTORE SWAP6 MLOAD PUSH1 0x1 DUP9 ADD DUP1 SLOAD SWAP2 DUP7 AND PUSH1 0x1 PUSH1 0x1 PUSH1 0xA0 SHL SUB NOT SWAP1 SWAP3 AND SWAP2 SWAP1 SWAP2 OR SWAP1 SSTORE SWAP2 MLOAD PUSH1 0x2 DUP8 ADD DUP1 SLOAD SWAP4 MLOAD SWAP1 SWAP3 AND PUSH1 0x1 PUSH1 0xA0 SHL MUL PUSH1 0x1 PUSH1 0x1 PUSH1 0xA8 SHL SUB NOT SWAP1 SWAP4 AND SWAP4 AND SWAP3 SWAP1 SWAP3 OR OR SWAP1 SSTORE MLOAD PUSH1 0x3 DUP4 ADD SSTORE SWAP2 MLOAD PUSH1 0x4 SWAP1 SWAP2 ADD SSTORE ISZERO PUSH2 0x39A JUMPI DUP2 PUSH1 0xFF AND PUSH1 0x0 SUB PUSH2 0x363 JUMPI PUSH1 0x40 MLOAD CALLER SWAP1 CALLVALUE DUP1 ISZERO PUSH2 0x8FC MUL SWAP2 PUSH1 0x0 DUP2 DUP2 DUP2 DUP6 DUP9 DUP9 CALL SWAP4 POP POP POP POP ISZERO DUP1 ISZERO PUSH2 0x35D JUMPI RETURNDATASIZE PUSH1 0x0 DUP1 RETURNDATACOPY RETURNDATASIZE PUSH1 0x0 REVERT JUMPDEST POP PUSH2 0x39A JUMP JUMPDEST PUSH1 0x40 MLOAD PUSH1 0x1 PUSH1 0x1 PUSH1 0xA0 SHL SUB DUP5 AND SWAP1 CALLVALUE DUP1 ISZERO PUSH2 0x8FC MUL SWAP2 PUSH1 0x0 DUP2 DUP2 DUP2 DUP6 DUP9 DUP9 CALL SWAP4 POP POP POP POP ISZERO DUP1 ISZERO PUSH2 0x398 JUMPI RETURNDATASIZE PUSH1 0x0 DUP1 RETURNDATACOPY RETURNDATASIZE PUSH1 0x0 REVERT JUMPDEST POP JUMPDEST PUSH1 0x40 DUP1 MLOAD PUSH1 0xFF DUP5 AND DUP2 MSTORE CALLVALUE PUSH1 0x20 DUP3 ADD MSTORE PUSH1 0x1 PUSH1 0x1 PUSH1 0xA0 SHL SUB DUP6 AND SWAP2 CALLER SWAP2 DUP8 SWAP2 PUSH32 0xD15B3B7CEE4E22C92783AB8C8EC2B99D3E62A08F55B1E523E5A3F840FFDE7A07 SWAP2 ADD PUSH1 0x40 MLOAD DUP1 SWAP2 SUB SWAP1 LOG4 POP POP POP POP JUMP JUMPDEST PUSH1 0x0 PUSH1 0x20 DUP3 DUP5 SUB SLT ISZERO PUSH2 0x3FC JUMPI PUSH1 0x0 DUP1 REVERT JUMPDEST POP CALLDATALOAD SWAP2 SWAP1 POP JUMP JUMPDEST PUSH1 0x0 DUP1 PUSH1 0x0 PUSH1 0x60 DUP5 DUP7 SUB SLT ISZERO PUSH2 0x418 JUMPI PUSH1 0x0 DUP1 REVERT JUMPDEST DUP4 CALLDATALOAD SWAP3 POP PUSH1 0x20 DUP5 ADD CALLDATALOAD PUSH1 0x1 PUSH1 0x1 PUSH1 0xA0 SHL SUB DUP2 AND DUP2 EQ PUSH2 0x436 JUMPI PUSH1 0x0 DUP1 REVERT JUMPDEST SWAP2 POP PUSH1 0x40 DUP5 ADD CALLDATALOAD PUSH1 0xFF DUP2 AND DUP2 EQ PUSH2 0x44C JUMPI PUSH1 0x0 DUP1 REVERT JUMPDEST DUP1 SWAP2 POP POP SWAP3 POP SWAP3 POP SWAP3 JUMP INVALID LOG2 PUSH5 0x6970667358 0x22 SLT KECCAK256 RETURN 0xEB PUSH1 0xF4 AND SMOD SSTORE SHR 0xA7 SELFDESTRUCT 0xEA 0xD ORIGIN OR 0xC SWAP4 TIMESTAMP MUL 0x2E ORIGIN LOG2 RETURNDATACOPY 0xF9 PC 0xDD DUP9 0xDB BASEFEE 0xC 0x4D EQ PUSH4 0x64736F6C PUSH4 0x43000818 STOP CALLER "},"methodIdentifiers":{"settleMatch(bytes32,address,uint8)":"2917a4db","settlements(bytes32)":"01bc95e2"}}}}}