{
  "_format": "hh-sol-artifact-1",
  "contractName": "SquareXOSettlement",
  "sourceName": "contracts/SquareXOSettlement.sol",
  "abi": [
    {
      "anonymous": false,
      "inputs": [
        {
          "indexed": true,
          "internalType": "bytes32",
          "name": "matchId",
          "type": "bytes32"
        },
        {
          "indexed": true,
          "internalType": "address",
          "name": "reporter",
          "type": "address"
        },
        {
          "indexed": true,
          "internalType": "address",
          "name": "winner",
          "type": "address"
        },
        {
          "indexed": false,
          "internalType": "uint8",
          "name": "winnerCode",
          "type": "uint8"
        },
        {
          "indexed": false,
          "internalType": "uint256",
          "name": "stakeWei",
          "type": "uint256"
        }
      ],
      "name": "MatchSettled",
      "type": "event"
    },
    {
      "inputs": [
        {
          "internalType": "bytes32",
          "name": "matchId",
          "type": "bytes32"
        },
        {
          "internalType": "address",
          "name": "winner",
          "type": "address"
        },
        {
          "internalType": "uint8",
          "name": "winnerCode",
          "type": "uint8"
        }
      ],
      "name": "settleMatch",
      "outputs": [],
      "stateMutability": "payable",
      "type": "function"
    },
    {
      "inputs": [
        {
          "internalType": "bytes32",
          "name": "",
          "type": "bytes32"
        }
      ],
      "name": "settlements",
      "outputs": [
        {
          "internalType": "bytes32",
          "name": "matchId",
          "type": "bytes32"
        },
        {
          "internalType": "address",
          "name": "reporter",
          "type": "address"
        },
        {
          "internalType": "address",
          "name": "winner",
          "type": "address"
        },
        {
          "internalType": "uint8",
          "name": "winnerCode",
          "type": "uint8"
        },
        {
          "internalType": "uint256",
          "name": "stakeWei",
          "type": "uint256"
        },
        {
          "internalType": "uint256",
          "name": "timestamp",
          "type": "uint256"
        }
      ],
      "stateMutability": "view",
      "type": "function"
    }
  ],
  "bytecode": "0x608060405234801561001057600080fd5b5061048d806100206000396000f3fe6080604052600436106100295760003560e01c806301bc95e21461002e5780632917a4db146100cf575b600080fd5b34801561003a57600080fd5b5061008f6100493660046103ea565b6000602081905290815260409020805460018201546002830154600384015460049094015492936001600160a01b039283169392821692600160a01b90920460ff169186565b604080519687526001600160a01b039586166020880152939094169285019290925260ff166060840152608083015260a082015260c00160405180910390f35b6100e26100dd366004610403565b6100e4565b005b826101295760405162461bcd60e51b815260206004820152601060248201526f1253959053125117d3505510d217d25160821b60448201526064015b60405180910390fd5b60028160ff1611156101735760405162461bcd60e51b8152602060048201526013602482015272494e56414c49445f57494e4e45525f434f444560681b6044820152606401610120565b60008381526020819052604090206004810154156101cb5760405162461bcd60e51b815260206004820152601560248201527413505510d217d053149150511657d4d15515131151605a1b6044820152606401610120565b8160ff16600003610232576001600160a01b0383161561022d5760405162461bcd60e51b815260206004820152601860248201527f445241575f57494e4e45525f4d5553545f42455f5a45524f00000000000000006044820152606401610120565b61027a565b6001600160a01b03831661027a5760405162461bcd60e51b815260206004820152600f60248201526e15d25393915497d491545552549151608a1b6044820152606401610120565b6040805160c0810182528581523360208083019182526001600160a01b0387811684860190815260ff8089166060870190815234608088018181524260a08a0190815260008f815297889052999096209751885595516001880180549186166001600160a01b031990921691909117905591516002870180549351909216600160a01b026001600160a81b031990931693169290921717905551600383015591516004909101551561039a578160ff166000036103635760405133903480156108fc02916000818181858888f1935050505015801561035d573d6000803e3d6000fd5b5061039a565b6040516001600160a01b038416903480156108fc02916000818181858888f19350505050158015610398573d6000803e3d6000fd5b505b6040805160ff841681523460208201526001600160a01b03851691339187917fd15b3b7cee4e22c92783ab8c8ec2b99d3e62a08f55b1e523e5a3f840ffde7a07910160405180910390a450505050565b6000602082840312156103fc57600080fd5b5035919050565b60008060006060848603121561041857600080fd5b8335925060208401356001600160a01b038116811461043657600080fd5b9150604084013560ff8116811461044c57600080fd5b80915050925092509256fea2646970667358221220f3eb60f41607551ca7ffea0d32170c9342022e32a23ef958dd88db480c4d146364736f6c63430008180033",
  "linkReferences": {},
  "deployedLinkReferences": {}
}